:100000003DEF07F068961200046ED8CF05F0E0CF00
:1000100006F00001E9CF0CF0EACF07F0E1CF08F0DD
:10002000E2CF09F0D9CF0AF0DACF0BF0F3CF12F01C
:10003000F4CF13F0FACF14F000C00EF001C00FF0AF
:1000400002C010F003C011F0A0AA2AEF00F0A1BA7C
:1000500056EF06F00EC000F00FC001F010C002F025
:1000600011C003F00CC0E9FF07C0EAFF078E08C00B
:10007000E1FF09C0E2FF0AC0D9FF0BC0DAFF12C0DE
:10008000F3FF13C0F4FF14C0FAFF045006C0E0FFF2
:1000900005C0D8FF1000F76AA60FF66E000EF72213
:1000A0000900F55012000003FFFFFFFFFFFFFFFFF5
:1000B000FFFFFFFFFFFFF76AC60FF66E000EF72285
:1000C0000900F55012004000080000000000000088
:1000D0000000000000000000000000000000000020
:1000E000000000000000F76AF60FF66E000EF7221F
:1000F0000900F55012000600FF0901A101190129AC
:10010000081580257F750895028102190129087557
:100110000895029102C0F76A260FF66E010EF722CB
:100120000900F55012000000F76A380FF66E010E54
:10013000F7220900F55012002000F76A4A0FF66E08
:10014000010EF7220900F5501200090229000101F1
:1001500000803209040000020300000009210001B0
:1001600000012220000705810308000A070501039A
:1001700008000A00F76A840FF66E010EF7220900E4
:10018000F55012000100F76A960FF66E010EF72285
:100190000900F55012001200F76AA80FF66E010E62
:1001A000F7220900F5501200120110010000004072
:1001B00061042000000101020001F76ACA0FF66E17
:1001C000010EF7220900F550120004030904080388
:1001D0004300430053001A03430043005300200030
:1001E0004800490044002000440065006D006F0095
:1001F0006D92699468A402D06894FCD762EF06F00F
:10020000400E0401016F040E036F100E026F880E82
:10021000006F046B040E076F500E066F0001120092
:1002200070A002D0EDDF7090689A69EF06F06A6AFC
:1002300068926EEF06F04C904BBE4C804B9E4B503C
:10024000100803E2000E016E20D04CA010D0036A0B
:100250004B50F2CF4DF0F29E1EDF4DBEF28EFF08E6
:1002600002E1000E01D0010E016E0FD00ED0036A24
:100270004B50F2CF4DF0F29E0EDF4DBEF28EFF08D6
:1002800002E1000E01D0010E016E1200036A4A5015
:10029000700FE96E0F0E0320EA6EEF6A4AC04BF052
:1002A000CADF015218E04A50080DF3504C6AE96E5B
:1002B000040E4C24EA6EEF6A4A50080DF3504C6A63
:1002C0004B6E040E4B26000E4C224BC0E9FF040E71
:1002D0004C24EA6EEF6A1200010E496E49500F0875
:1002E00005E349C04AF0D2DF492AF8D71200256A4F
:1002F000246A3F6A3F520AE1036A3F50260FE96EC3
:10030000000E0320EA6EEF6A3F2AF4D7186A010E46
:10031000196E176A12006A6A686A9F0E6B6E3D0E4C
:10032000696E6E6AD9DFE3DF160E706E68A602D0C2
:1003300069DEFCD76D9864DF030E1F6E73EF06F065
:10034000698468986D8278EF06F0689C7DEF06F00E
:1003500044C020F0120020681200426A2450251088
:1003600046E042503F0843E31A50FC0F2EE2040FD0
:1003700002EF02F023C003F02250F2CF44F0F29ECD
:10038000DCDE44BEF28E436E20D023C003F0225048
:10039000F2CF44F0F29EA7DE44BEF28E436E15D03B
:1003A00023C003F02250F2CF44F0F29E06DF44BE99
:1003B000F28E436E0AD023C003F02250F2CF44F0F5
:1003C000F29EEADE44BEF28E436E222AD8B4232A7D
:1003D0002450D8B4250624064250422A036A500FFE
:1003E000E96E040E0320EA6E43C0EFFFB7D7245036
:1003F000251004E14250400801E0176A42C044F071
:10040000A7DF1200E824F76AF7361F0FF66E040E16
:10041000F7220A00F550FA6E0800F550F96E7403E1
:100420008A03A003B603236A226A1A6A04011351DD
:10043000010A000109E0030A0DE0010A0FE0220AA7
:1004400029E0030A4AE06FD0256A120E246E030EDB
:100450001A6E6BD0256A290E246E67D0020E1A6EB2
:10046000036A040112511B0FE96E000E0320EA6EAD
:10047000236AEFCF22F023C003F02250F2CF42F0E4
:10048000F29E00019ADE42BEF28E036A246E03C021
:1004900025F04BD0036A04011251F2CF42F0F29ED4
:1004A000000171DE42BEF28E036A226E03C023F0A9
:1004B000223C02D023520FE023C003F02250F2CF9F
:1004C00042F0F29E3ADE42BEF28E036A246E03C010
:1004D00025F02BD002D03FDF37D0036A040114513E
:1004E000F2CF42F0F29E000116DE42BEF28E036AA7
:1004F000226E03C023F0223C02D0235212E0010EF0
:100500001A6E036A04011451F2CF42F0F29E000108
:100510000BDE42BEF28E036A246E03C025F005D0C6
:1005200002D019DF11D017DF0FD00401175308E1F3
:10053000255203E12450165D03E2256A16C424F017
:10054000010E176E000109DF1200415204E1040E92
:100550001F6EC2DED1D0050E1F6E040E446E900ECB
:10056000436E010E426E42500F08D8A0C5D042C063
:100570004AF08CDE456A036A4250F2CF49F0F29E9F
:100580008ADD49BEF28EFF0859E0040E456ED89010
:100590004234036AF2CF49F0F29E8DDD0900F5CFB7
:1005A00003F049BEF28E466E03C047F04250080D7C
:1005B000F3504A6A496E010E4924016E000E4A202A
:1005C000036E01C0E9FF040E0324EA6E46C0EFFF8C
:1005D0004250080DF3504A6A496E020E4924016EDA
:1005E000000E4A20036E01C0E9FF040E0324EA6EE8
:1005F00044C0ECFFED5243C0EFFFD8904234036A91
:10060000F2CF49F0F29E57DD0900F5CF03F049BE65
:10061000F28E432603504422880E486E47A001D034
:10062000488047A201D048824250080DF3504A6AE0
:10063000E96E040E4A24EA6E48C0EFFF036A425096
:10064000F2CF49F0F29E27DD49BEF28EFF0839E075
:1006500045824250080DF3504A6A496E040E4926FD
:10066000000E4A22020E4924016E000E4A20036E3B
:1006700001C0E9FF040E0324EA6E44C0ECFFED5212
:1006800043C0EFFFD8904234036AF2CF49F0F29EA4
:1006900012DD0900F5CF03F049BEF28E4326035068
:1006A00044224250080DF3504A6A496E040E49260E
:1006B000000E4A2249C0E9FF040E4A24EA6E400EA9
:1006C000EF6E4550060802E10E0E456E036A425079
:1006D000F2CF49F0F29EDFDC49BEF28E010801E064
:1006E0004588036A4250700FE96E0F0E0320EA6ED0
:1006F00045C0EFFF422A37D7CBEF03F00401115179
:10070000000A00010DE0010A14E0020A1FE0060AD7
:1007100029E0030A2EE00E0A2EE0010A32E040D062
:1007200019C050F40401516B020E446E000110DE3A
:1007300038D00401122D07D0010E1916446A0001A9
:1007400007DE03D00401000106DE2BD00401122DC8
:1007500006D01982446A0001FBDD03D004010001C8
:10076000FADD1FD0020E176E12C421F0446AF0DDCC
:1007700018D059DE16D018C050F4010E446EE8DDD2
:1007800010D004011251010809E312C418F012C478
:1007900041F00001DAD6446ADBDD0401000101D03A
:1007A000DADDDEEF04F018C041F004011151000A57
:1007B000000107E00A0A0DE0010A2DE00D0A3DE004
:1007C0003ED00401506B516B020E446E0001C0DD3F
:1007D00037D041521EE0010E415C036AF2CF42F075
:1007E000F29EC8DC42BEF28E016E0401145DD8A0F8
:1007F00002D000010ED0036A1451260FE96E000EDC
:100800000320EA6EEFCF50F4010E446E0001A0DD2C
:1008100001D0A1DD15D041520EE0036A040114514C
:10082000260FE96E000E0320EA6E12C4EFFF446A41
:1008300000018EDD01D08FDD03D0F5DD01D08BDD31
:10084000DEEF04F0429041BE4280419E42A011D0B2
:100850004150080DF350446A436E040E4326000EC7
:10086000442243C0E9FF040E4424EA6E880EEF6E72
:1008700009D04150080DF350446AE96E040E442437
:10088000EA6EEF6AA4EF04F0429041BE4280419EBE
:1008900042A011D04150080DF350446A436E040E3B
:1008A0004326000E442243C0E9FF040E4424EA6EAE
:1008B000840EEF6E0AD04150080DF350446AE96E81
:1008C000040E4424EA6E840EEF6EAAEF04F0429008
:1008D00041BE4280419E42A011D04150080DF350CC
:1008E000456A446E040E4426000E452244C0E9FFCA
:1008F000040E4524EA6EEFCF43F00AD04150080DB4
:10090000F350456AE96E040E4524EA6EEFCF43F0DA
:1009100043AE02D043B402D0000E01D0010E016EEE
:10092000B4EF04F014C44BF086DC015228E004015B
:100930001151010A000105E0020A09E0030A0DE075
:100940001DD014C441F07ED7446A02DD18D014C40F
:1009500041F09AD7446AFCDC12D00401506B516B11
:1009600014C441F00001B3D7015204E0010E0401A8
:10097000506F0001020E446EEBDC01D0ECDCDEEFC8
:1009800004F0040111510001E6DCDEEF04F0176A07
:10099000040110517F0B000A000107E0010A07E083
:1009A000030A07E0230A07E008D0A8D607D0FBD641
:1009B00005D0B8D703D0E5D701D0CDDC06EF06F0DF
:1009C0004150080DF350476AE96E040E4724EA6E61
:1009D000EFCF43F04250020806E143AC02D0426A36
:1009E00002D0010E426E4250030813E1840E436EA2
:1009F0004150080DF350476A466E040E4626000E1D
:100A0000472246C0E9FF040E4724EA6E840EEF6ECB
:100A100007D0422C03D0C80E436E02D0880E436E1E
:100A2000D8904134036AF2CF46F0F29E5BEC00F0BE
:100A30000900F5CF03F046BEF28E446E03C045F0C8
:100A40004150080DF350476A466E010E4624016E70
:100A5000000E4720036E01C0E9FF040E0324EA6E76
:100A600044C0EFFF45A001D0438045A201D043829E
:100A70004150080DF350476AE96E040E4724EA6EB0
:100A800043C0EFFF1200036A4650700FE96E0F0E6D
:100A90000320EA6EEF5212E04650080DF350486A08
:100AA000476E040E4726000E482247C0E9FF040E99
:100AB0004824EA6EEFCF49F049AE02D0000E01D0D3
:100AC000010E016E120041C046F0DDDF015263E00D
:100AD0004150080DF350476A466E040E4626000E3C
:100AE0004722010E4624016E000E4720036E01C00E
:100AF000E9FF040E0324EA6E42C0EFFF44500208EF
:100B000017E14150080DF350476A466E040E462621
:100B1000000E472246C0E9FF040E4724EA6EEFCFDD
:100B200045F045AC02D0446A02D0010E446E13D0A9
:100B30004450040810E14150080DF350476AE96E33
:100B4000040E4724EA6EEFCF45F045AC03D0010E0A
:100B5000446E01D0446A442C03D0C80E456E02D0C6
:100B6000880E456E43A001D0458043A201D0458246
:100B70004150080DF350476A466E040E4626000E9B
:100B8000472246C0E9FF040E4724EA6E45C0EFFF46
:100B9000010E016E02D0000E016E1200415200E102
:100BA000120042C06EFF425203E0040E1F6E02D0DC
:100BB000020E1F6EE1EF05F0186A176A21C042F0BD
:100BC000F0D7EEEF05F0415209E1172C03D0ADEC60
:100BD00001F004D017500208D8B4EED712001E302E
:100BE0003F6E3F323F321F0E3F161E5241E104015D
:100BF00000513C0B406E430E0017405034081EE17C
:100C00000451800B01E0046B0001C1D66D98203CBB
:100C100005D0416A030E426ED3DE0ED0416A020E49
:100C2000426ECEDE2050FE0807E0416A436A20C0D3
:100C300042F0040E446E47DF18D00401405004080F
:100C400015E1416A0001AADF416A020E426EB8DE78
:100C50002050FE080AE0203C01D007D0416A436AD8
:100C600020C042F0010E446E2EDF04011CD00001B2
:100C70001E5004080EE12068416AA5DF203C01D027
:100C800007D0416A436A20C042F0020E446E1BDF67
:100C900009D01EB404D03FC041F080DF03D03FC074
:100CA00041F091DF0401000187EF06F0A19A1F5285
:100CB000D8B433D06852D8B430D068A403D069B463
:100CC000F8EF00F06DB229D068AA03D069BA10EF2E
:100CD00001F068A203D069B217EF01F068A003D059
:100CE00069B08BEF01F068A803D069B8A0EF01F0FC
:100CF00068AC03D069BCA5EF01F03E6A68A608D0D5
:100D000069A606D06CCF1EF002EC00F068D701D0C7
:100D100004D03E503E2A0308F1E22AEF00F06D6A4B
:100D2000696A080E6F6E94503009946E1F6A166AD5
:100D3000F2BE168EF29E77EC01F016BEF28EA2EF96
:100D400006F0EDD7C7EF06F0166AF2BE168EF29ED9
:100D500077EC01F016BEF28E6D6A140E6F6E696A42
:100D60006D86010E1F6EB8EF06F06DB601D0ECD7A0
:100D70001F2C0BD06DBA09D0686A696AA08AC00EB0
:100D8000F212110E696E020E1F6E1200DAD7EDDF3D
:100D90001F500208FCE150EF07F0185202E1040076
:100DA000FCD752EF07F01850016E60EF07F0EA6AC7
:100DB0002D0EE96EEF500EE00F0E016E006A002E50
:100DC000FED7012EFBD78F0E006E002EFED700003F
:100DD000EF2EF2D77DEF07F0166AF2BE168EF29E66
:100DE0002DC046F050DE16BEF28E015242E02D506C
:100DF000080DF350366A356E040E3526000E362285
:100E0000020E3524016E000E3620036E01C0E9FF8C
:100E1000040E0324EA6EECCF34F0ED52EFCF33F042
:100E200034C0EAFF33C0E9FF2FC0E2FF2EC0E1FF6C
:100E300031C002F030C001F0015202E0022A02D0BB
:100E4000025206E0E6CFEEFF012EFCD7022EFAD7C3
:100E5000166AF2BE168EF29E2DC041F031C043F0EC
:100E600030C042F032C044F02EDE16BEF28E015089
:100E700002D0000E016E8BEF07F0F86AD09E078E4D
:100E8000C150C00B0F09C16E070EB46E1B6A040E71
:100E90001C6E0C0E1D6E96948D94959E8C8E76D73E
:100EA00064DF7BD7959E8C9E96948D84F29CF29EF7
:100EB000F2BEFDD7B50ECD6EC00EF21256DF73D75F
:100EC00001521FE093928A82270E006E002EFED7F9
:100ED00000D093928A92938081B001D0FCD7CF6AE0
:100EE000960ECE6E938081A001D0FCD7CE502B6E93
:100EF000CFCF2CF0050E2D6E5AD72CC027F02BC06B
:100F000028F0010E2D6E2F6A270E2E6E316A020E0A
:0A0F1000306E326E61D7D2D70300B5
:020000040030CA
:0E00000024CE381E0087A1000FC00FE00F4075
:00000001FF
;PIC18F4550
;CRC=9EC0  CREATED="08-Jun-16 01:22"
